:100000000C942A000C9434000C9434000C943400AA
:100010000C9434000C9434000C9434000C94340090
:100020000C9434000C9434000C9434000C94340080
:100030000C9434000C9434000C9434000C94340070
:100040000C9434000C9434000C9434000C94340060
:100050000C94340011241FBECFE5D8E0DEBFCDBF25
:100060000E9440020C946D020C9400008FEF8ABB3A
:1000700017BA14BA11BA8BBB18BA15BA12BA0895C6
:10008000803210F080E00895382F3770869586957D
:100090008695813009F1813030F08230B1F18330C2
:1000A00009F058C04BC0613059F42AB381E090E0A8
:1000B00002C0880F991F3A95E2F7282B2ABB4AC045
:1000C0002AB381E090E002C0880F991F3A95E2F7C9
:1000D000809582238ABB3EC0613059F427B381E00A
:1000E00090E002C0880F991F3A95E2F7282B27BBB2
:1000F00031C027B381E090E002C0880F991F3A9584
:10010000E2F78095822387BB25C0613059F424B380
:1001100081E090E002C0880F991F3A95E2F7282B02
:1001200024BB18C024B381E090E002C0880F991F5F
:100130003A95E2F78095822384BB0CC0613061F46C
:1001400021B381E090E002C0880F991F3A95E2F751
:10015000282B21BB81E0089521B381E090E002C00B
:10016000880F991F3A95E2F78095822381BB81E041
:100170000895803210F080E00895382F377086950A
:1001800086958695813009F1813030F08230B1F169
:10019000833009F058C04BC0613059F42BB381E073
:1001A00090E002C0880F991F3A95E2F7282B2BBBED
:1001B0004AC02BB381E090E002C0880F991F3A95A6
:1001C000E2F7809582238BBB3EC0613059F428B39F
:1001D00081E090E002C0880F991F3A95E2F7282B42
:1001E00028BB31C028B381E090E002C0880F991F7E
:1001F0003A95E2F78095822388BB25C0613059F497
:1002000025B381E090E002C0880F991F3A95E2F78C
:10021000282B25BB18C025B381E090E002C0880FD1
:10022000991F3A95E2F78095822385BB0CC0613017
:1002300061F422B381E090E002C0880F991F3A95E3
:10024000E2F7282B22BB81E0089522B381E090E001
:1002500002C0880F991F3A95E2F78095822382BBEE
:1002600081E00895FB01803210F080E00895482F6E
:100270004770869586958695813049F0813028F0C3
:10028000823039F08330B9F418C029B303C026B3E3
:1002900001C023B381E090E0042E02C0880F991FB3
:1002A0000A94E2F730E08223932302C09595879564
:1002B0004A95E2F7808381E0089520B381E090E0E1
:1002C000042E02C0880F991F0A94E2F730E08223BF
:1002D000932302C0959587954A95E2F7808381E044
:1002E0000895803210F080E00895382F3770869599
:1002F00086958695813091F0813028F08230C9F062
:10030000833009F522C02BB381E090E002C0880F52
:10031000991F3A95E2F728272BBB15C028B381E037
:1003200090E002C0880F991F3A95E2F7282728BB72
:100330000AC025B381E090E002C0880F991F3A956A
:10034000E2F7282725BB81E0089522B381E090E001
:1003500002C0880F991F3A95E2F7282722BB81E057
:100360000895843010F080E00895813071F081307C
:1003700028F0823089F08330D1F415C0613019F44F
:100380008FEF8ABB14C01ABA12C0613019F48FEF14
:1003900087BB0DC017BA0BC0613019F48FEF84BB57
:1003A00006C014BA04C0613021F48FEF81BB81E034
:1003B000089511BA81E00895843010F080E0089526
:1003C000813071F0813028F0823089F08330D1F4AF
:1003D00015C0613019F48FEF8BBB14C01BBA12C06B
:1003E000613019F48FEF88BB0DC018BA0BC06130B3
:1003F00019F48FEF85BB06C015BA04C0613021F433
:100400008FEF82BB81E0089512BA81E00895FB016D
:10041000843010F080E00895813049F0813028F078
:10042000823039F0833039F408C08BB303C088B30D
:1004300001C085B3808381E0089582B3808381E029
:100440000895843010F080E00895813059F08130B3
:1004500028F0823059F0833061F40DC08BB3809561
:100460008BBB07C088B3809588BB03C085B38095DC
:1004700085BB81E0089582B3809582BB81E00895B9
:10048000CF93DF9380E061E00E94400080E061E074
:100490000E94B90081E061E00E94400081E061E0DB
:1004A0000E94B90083E061E00E944000C0E9D1E011
:1004B00083E00E94710180E197E2FE013197F1F73C
:1004C0000197D9F783E00E94710180E197E2FE0174
:0E04D0003197F1F70197D9F7EBCFF894FFCFF2
:00000001FF
